{
  "contractName": "SplitIt",
  "abi": [
    {
      "inputs": [],
      "stateMutability": "nonpayable",
      "type": "constructor"
    },
    {
      "anonymous": false,
      "inputs": [
        {
          "indexed": false,
          "internalType": "uint256",
          "name": "date",
          "type": "uint256"
        },
        {
          "indexed": false,
          "internalType": "uint256",
          "name": "debtAmount",
          "type": "uint256"
        },
        {
          "indexed": false,
          "internalType": "address",
          "name": "paidBy",
          "type": "address"
        },
        {
          "indexed": false,
          "internalType": "address",
          "name": "paidTo",
          "type": "address"
        }
      ],
      "name": "DebtPaid",
      "type": "event"
    },
    {
      "inputs": [],
      "name": "accCount",
      "outputs": [
        {
          "internalType": "uint256",
          "name": "",
          "type": "uint256"
        }
      ],
      "stateMutability": "view",
      "type": "function",
      "constant": true
    },
    {
      "inputs": [
        {
          "internalType": "address",
          "name": "",
          "type": "address"
        }
      ],
      "name": "addrName",
      "outputs": [
        {
          "internalType": "string",
          "name": "",
          "type": "string"
        }
      ],
      "stateMutability": "view",
      "type": "function",
      "constant": true
    },
    {
      "inputs": [
        {
          "internalType": "address",
          "name": "",
          "type": "address"
        }
      ],
      "name": "isUser",
      "outputs": [
        {
          "internalType": "bool",
          "name": "",
          "type": "bool"
        }
      ],
      "stateMutability": "view",
      "type": "function",
      "constant": true
    },
    {
      "inputs": [
        {
          "internalType": "string",
          "name": "",
          "type": "string"
        }
      ],
      "name": "nameAddr",
      "outputs": [
        {
          "internalType": "address",
          "name": "",
          "type": "address"
        }
      ],
      "stateMutability": "view",
      "type": "function",
      "constant": true
    },
    {
      "stateMutability": "payable",
      "type": "receive",
      "payable": true
    },
    {
      "inputs": [
        {
          "internalType": "string",
          "name": "_name",
          "type": "string"
        }
      ],
      "name": "register",
      "outputs": [],
      "stateMutability": "payable",
      "type": "function",
      "payable": true
    },
    {
      "inputs": [],
      "name": "getBalance",
      "outputs": [
        {
          "internalType": "uint256",
          "name": "",
          "type": "uint256"
        }
      ],
      "stateMutability": "view",
      "type": "function",
      "constant": true
    },
    {
      "inputs": [],
      "name": "getTotalDebtMoney",
      "outputs": [
        {
          "internalType": "uint256",
          "name": "",
          "type": "uint256"
        }
      ],
      "stateMutability": "view",
      "type": "function",
      "constant": true
    },
    {
      "inputs": [],
      "name": "getTotalLendedMoney",
      "outputs": [
        {
          "internalType": "uint256",
          "name": "",
          "type": "uint256"
        }
      ],
      "stateMutability": "view",
      "type": "function",
      "constant": true
    },
    {
      "inputs": [
        {
          "internalType": "address",
          "name": "_sender",
          "type": "address"
        },
        {
          "internalType": "address",
          "name": "_recipitant",
          "type": "address"
        }
      ],
      "name": "getDebtByAcc",
      "outputs": [
        {
          "internalType": "uint256",
          "name": "",
          "type": "uint256"
        }
      ],
      "stateMutability": "view",
      "type": "function",
      "constant": true
    },
    {
      "inputs": [
        {
          "internalType": "address",
          "name": "_sender",
          "type": "address"
        },
        {
          "internalType": "address",
          "name": "_recipitant",
          "type": "address"
        }
      ],
      "name": "getLendedMoneyByAcc",
      "outputs": [
        {
          "internalType": "uint256",
          "name": "",
          "type": "uint256"
        }
      ],
      "stateMutability": "view",
      "type": "function",
      "constant": true
    },
    {
      "inputs": [],
      "name": "getAccounts",
      "outputs": [
        {
          "internalType": "address[]",
          "name": "",
          "type": "address[]"
        }
      ],
      "stateMutability": "view",
      "type": "function",
      "constant": true
    },
    {
      "inputs": [
        {
          "internalType": "address",
          "name": "recipitant",
          "type": "address"
        },
        {
          "internalType": "uint256",
          "name": "amount",
          "type": "uint256"
        }
      ],
      "name": "addSplit",
      "outputs": [],
      "stateMutability": "nonpayable",
      "type": "function"
    },
    {
      "inputs": [
        {
          "internalType": "address",
          "name": "recipitant",
          "type": "address"
        }
      ],
      "name": "payDebt",
      "outputs": [],
      "stateMutability": "nonpayable",
      "type": "function"
    },
    {
      "inputs": [
        {
          "internalType": "uint256",
          "name": "amount",
          "type": "uint256"
        }
      ],
      "name": "withdrawMoney",
      "outputs": [],
      "stateMutability": "nonpayable",
      "type": "function"
    },
    {
      "inputs": [],
      "name": "depositeMoney",
      "outputs": [],
      "stateMutability": "payable",
      "type": "function",
      "payable": true
    }
  ],
  "bytecode": "0x608060405234801561001057600080fd5b50600380546001600160a01b031916331790556111f1806100326000396000f3fe6080604052600436106100ec5760003560e01c80636b18bbc01161008a578063bf7b69ee11610059578063bf7b69ee1461048b578063cf944534146104be578063db12d568146104d3578063f2c298be1461050e5761016a565b80636b18bbc01461029a5780638a48ac03146102af5780639a3591ab14610314578063a310d29c146103bc5761016a565b80633f925f7a116100c65780633f925f7a146101e65780634209fff1146101ee578063548769211461023557806365355a791461025f5761016a565b80630f0efdbc1461016f57806311948900146101aa57806312065fe0146101d15761016a565b3661016a573360009081526002602052604090205460ff161515600114610150576040805162461bcd60e51b81526020600482015260136024820152725573657220646f65736e27742065786973742160681b604482015290519081900360640190fd5b336000908152600160205260409020600501805434019055005b600080fd5b34801561017b57600080fd5b506101a86004803603604081101561019257600080fd5b506001600160a01b0381351690602001356105b4565b005b3480156101b657600080fd5b506101bf6106c8565b60408051918252519081900360200190f35b3480156101dd57600080fd5b506101bf610737565b6101a86107a4565b3480156101fa57600080fd5b506102216004803603602081101561021157600080fd5b50356001600160a01b0316610857565b604080519115158252519081900360200190f35b34801561024157600080fd5b506101a86004803603602081101561025857600080fd5b503561086c565b34801561026b57600080fd5b506101bf6004803603604081101561028257600080fd5b506001600160a01b0381358116916020013516610967565b3480156102a657600080fd5b506101bf610a50565b3480156102bb57600080fd5b506102c4610a56565b60408051602080825283518183015283519192839290830191858101910280838360005b838110156103005781810151838201526020016102e8565b505050509050019250505060405180910390f35b34801561032057600080fd5b506103476004803603602081101561033757600080fd5b50356001600160a01b0316610abc565b6040805160208082528351818301528351919283929083019185019080838360005b83811015610381578181015183820152602001610369565b50505050905090810190601f1680156103ae5780820380516001836020036101000a031916815260200191505b509250505060405180910390f35b3480156103c857600080fd5b5061046f600480360360208110156103df57600080fd5b8101906020810181356401000000008111156103fa57600080fd5b82018360208201111561040c57600080fd5b8035906020019184600183028401116401000000008311171561042e57600080fd5b91908080601f016020809104026020016040519081016040528093929190818152602001838380828437600092019190915250929550610b57945050505050565b604080516001600160a01b039092168252519081900360200190f35b34801561049757600080fd5b506101a8600480360360208110156104ae57600080fd5b50356001600160a01b0316610b7d565b3480156104ca57600080fd5b506101bf610e17565b3480156104df57600080fd5b506101bf600480360360408110156104f657600080fd5b506001600160a01b0381358116916020013516610e84565b6101a86004803603602081101561052457600080fd5b81019060208101813564010000000081111561053f57600080fd5b82018360208201111561055157600080fd5b8035906020019184600183028401116401000000008311171561057357600080fd5b91908080601f016020809104026020016040519081016040528093929190818152602001838380828437600092019190915250929550610f6c945050505050565b3360008181526002602052604090205460ff16610606576040805162461bcd60e51b8152602060048201526016602482015260008051602061119c833981519152604482015290519081900360640190fd5b6001600160a01b038316600090815260026020526040902054839060ff16610663576040805162461bcd60e51b8152602060048201526016602482015260008051602061119c833981519152604482015290519081900360640190fd5b50503360008181526001602081815260408084206001600160a01b039790971680855287840183528185208054880190558383526003909701805487019055808420948452848252832080548601905594909152909252600290910180549091019055565b3360008181526002602052604081205490919060ff1661071d576040805162461bcd60e51b8152602060048201526016602482015260008051602061119c833981519152604482015290519081900360640190fd5b3360009081526001602052604090206002015491505b5090565b3360008181526002602052604081205490919060ff1661078c576040805162461bcd60e51b8152602060048201526016602482015260008051602061119c833981519152604482015290519081900360640190fd5b50503360009081526001602052604090206005015490565b3360008181526002602052604090205460ff166107f6576040805162461bcd60e51b8152602060048201526016602482015260008051602061119c833981519152604482015290519081900360640190fd5b6000341161083c576040805162461bcd60e51b815260206004820152600e60248201526d4e6f204d6f6e65792073656e742160901b604482015290519081900360640190fd5b50336000908152600160205260409020600501805434019055565b60026020526000908152604090205460ff1681565b3360008181526002602052604090205460ff166108be576040805162461bcd60e51b8152602060048201526016602482015260008051602061119c833981519152604482015290519081900360640190fd5b3360009081526001602052604090206005015482111561091c576040805162461bcd60e51b8152602060048201526014602482015273496e73756666696369656e742042616c616e636560601b604482015290519081900360640190fd5b604051339083156108fc029084906000818181858888f19350505050158015610949573d6000803e3d6000fd5b50503360009081526001602052604090206005018054919091039055565b6001600160a01b038216600090815260026020526040812054839060ff166109c4576040805162461bcd60e51b8152602060048201526016602482015260008051602061119c833981519152604482015290519081900360640190fd5b6001600160a01b038316600090815260026020526040902054839060ff16610a21576040805162461bcd60e51b8152602060048201526016602482015260008051602061119c833981519152604482015290519081900360640190fd5b5050506001600160a01b0391821660009081526001602081815260408084209490951683529201909152205490565b60005481565b606060006004805480602002602001604051908101604052809291908181526020018280548015610ab057602002820191906000526020600020905b81546001600160a01b03168152600190910190602001808311610a92575b50939550505050505090565b60066020908152600091825260409182902080548351601f600260001961010060018616150201909316929092049182018490048402810184019094528084529091830182828015610b4f5780601f10610b2457610100808354040283529160200191610b4f565b820191906000526020600020905b815481529060010190602001808311610b3257829003601f168201915b505050505081565b80516020818301810180516005825292820191909301209152546001600160a01b031681565b3360008181526002602052604090205460ff16610bcf576040805162461bcd60e51b8152602060048201526016602482015260008051602061119c833981519152604482015290519081900360640190fd5b6001600160a01b038216600090815260026020526040902054829060ff16610c2c576040805162461bcd60e51b8152602060048201526016602482015260008051602061119c833981519152604482015290519081900360640190fd5b3360009081526001602081815260408084206001600160a01b03881685529283018252808420549183905290922054909110610ca0576040805162461bcd60e51b815260206004820152600e60248201526d4e6f206465627420666f756e642160901b604482015290519081900360640190fd5b6001600160a01b03841660009081526001820160209081526040808320549184905290912054600583015491900390811115610d19576040805162461bcd60e51b8152602060048201526013602482015272496e73756666696369656e742046756e64732160681b604482015290519081900360640190fd5b6005808301805483900390556001600160a01b0386166000818152600160208181526040808420958601805488019055878252808420805433808752888601855283872080549290920390915586865281546003808a01805492909203909155948a0180855283872080548389528a87528589208054919091039055888852805460029a8b0180549190910390558354998c0180549a909a039099558854958b0180549690960390955590859055928252929094558151428152938401859052838201526060830191909152517fa069c026dce92b8c271c729278b89184d804972c84478f687ef62c4b0b4a02aa9181900360800190a15050505050565b3360008181526002602052604081205490919060ff16610e6c576040805162461bcd60e51b8152602060048201526016602482015260008051602061119c833981519152604482015290519081900360640190fd5b50503360009081526001602052604090206003015490565b6001600160a01b038216600090815260026020526040812054839060ff16610ee1576040805162461bcd60e51b8152602060048201526016602482015260008051602061119c833981519152604482015290519081900360640190fd5b6001600160a01b038316600090815260026020526040902054839060ff16610f3e576040805162461bcd60e51b8152602060048201526016602482015260008051602061119c833981519152604482015290519081900360640190fd5b5050506001600160a01b03918216600090815260016020908152604080832093909416825291909152205490565b3360009081526002602052604090205460ff1615610fc3576040805162461bcd60e51b815260206004820152600f60248201526e4163636f756e74204578697374732160881b604482015290519081900360640190fd5b336000908152600260209081526040808320805460ff1916600190811790915582529091208251610ffc92600490920191840190611103565b50336005826040518082805190602001908083835b602083106110305780518252601f199092019160209182019101611011565b51815160209384036101000a60001901801990921691161790529201948552506040805194859003820190942080546001600160a01b0319166001600160a01b03969096169590951790945550503360009081526006835220825161109792840190611103565b5034156110b7573360009081526001602052604090206005018054340190555b50600480546001818101835560009283527f8a35acfbc15ff81a39ae7d344fd709f28e8600b4aa8c65c6b64bfe7fe36bd19b90910180546001600160a01b031916331790558154019055565b828054600181600116156101000203166002900490600052602060002090601f016020900481019282611139576000855561117f565b82601f1061115257805160ff191683800117855561117f565b8280016001018555821561117f579182015b8281111561117f578251825591602001919060010190611164565b506107339291505b80821115610733576000815560010161118756fe4163636f756e7420446f65736e27742045786973742100000000000000000000a26469706673582212203500ca91274b95fd73afb8fb1e75ed1bd1770761cedca23ae7b7252d4ae3499164736f6c63430007060033",
  "immutableReferences": {},
  "source": "// SPDX-License-Identifier: GPL-3.0\r\npragma solidity >=0.7.0 <0.9.0;\r\n\r\ncontract SplitIt {\r\n    struct AccInfo {\r\n        mapping(address => uint256) debtMoney; // debt to pay, account wise\r\n        mapping(address => uint256) lendedMoney; // money to get from given address\r\n        uint256 totalDebtMoney;\r\n        uint256 totalLendedMoney;\r\n        string name; // must be less than 32 bytes\r\n        uint256 bal; // balance of the account in \"wei\"\r\n    }\r\n\r\n    uint256 public accCount; // count of total users\r\n    mapping(address => AccInfo) profiles; // profile mappings\r\n    mapping(address => bool) public isUser; // to keep track of users\r\n    address admin; // admin of the system\r\n\r\n    address[] accounts; // list of all registered users\r\n    mapping(string => address) public nameAddr; // to get address from name\r\n    mapping(address => string) public addrName; // to check if address is registered\r\n\r\n    constructor() {\r\n        admin = msg.sender; // creator of the contract would be the admin\r\n    }\r\n\r\n    // receive ether function\r\n    receive() external payable {\r\n        // check if user exists\r\n        require(isUser[msg.sender] == true, \"User doesn't exist!\");\r\n\r\n        // update user balance\r\n        profiles[msg.sender].bal += msg.value;\r\n    }\r\n\r\n    // Event when debt is paid by someone\r\n    event DebtPaid(\r\n        uint256 date,\r\n        uint256 debtAmount,\r\n        address paidBy,\r\n        address paidTo\r\n    );\r\n\r\n    modifier exists(address _addr) {\r\n        require(isUser[_addr], \"Account Doesn't Exist!\");\r\n        _;\r\n    }\r\n\r\n    // to register accout on the network\r\n    // this is a payable function i.e user can deposite money while registering\r\n    function register(string memory _name) external payable {\r\n        // check if user is already registered\r\n        require(isUser[msg.sender] == false, \"Account Exists!\");\r\n\r\n        // add user to the mapping\r\n        isUser[msg.sender] = true;\r\n\r\n        profiles[msg.sender].name = _name;\r\n        nameAddr[_name] = msg.sender;\r\n        addrName[msg.sender] = _name;\r\n        // increment balance if ether sent\r\n        if (msg.value > 0) {\r\n            profiles[msg.sender].bal += msg.value;\r\n        }\r\n        // adding to all acc list\r\n        accounts.push(msg.sender);\r\n        accCount++;\r\n    }\r\n\r\n    // get balance\r\n    function getBalance() external view exists(msg.sender) returns (uint256) {\r\n        return profiles[msg.sender].bal;\r\n    }\r\n\r\n    // get totalDebt\r\n    function getTotalDebtMoney()\r\n        external\r\n        view\r\n        exists(msg.sender)\r\n        returns (uint256)\r\n    {\r\n        return profiles[msg.sender].totalDebtMoney;\r\n    }\r\n\r\n    // get totalLendedMoney\r\n    function getTotalLendedMoney()\r\n        external\r\n        view\r\n        exists(msg.sender)\r\n        returns (uint256)\r\n    {\r\n        return profiles[msg.sender].totalLendedMoney;\r\n    }\r\n\r\n    function getDebtByAcc(address _sender, address _recipitant)\r\n        external\r\n        view\r\n        exists(_sender)\r\n        exists(_recipitant)\r\n        returns (uint256)\r\n    {\r\n        return profiles[_sender].debtMoney[_recipitant];\r\n    }\r\n\r\n    function getLendedMoneyByAcc(address _sender, address _recipitant)\r\n        external\r\n        view\r\n        exists(_sender)\r\n        exists(_recipitant)\r\n        returns (uint256)\r\n    {\r\n        return profiles[_sender].lendedMoney[_recipitant];\r\n    }\r\n\r\n    //get all accounts\r\n    function getAccounts() external view returns (address[] memory) {\r\n        address[] memory _accounts = accounts;\r\n        return _accounts;\r\n    }\r\n\r\n    // add lended money amount\r\n    function addSplit(address recipitant, uint256 amount)\r\n        external\r\n        exists(msg.sender)\r\n        exists(recipitant)\r\n    {\r\n        // add in lended money\r\n        profiles[msg.sender].lendedMoney[recipitant] += amount;\r\n        profiles[msg.sender].totalLendedMoney += amount;\r\n\r\n        // add to debt of recipitant\r\n        profiles[recipitant].debtMoney[msg.sender] += amount;\r\n        profiles[recipitant].totalDebtMoney += amount;\r\n    }\r\n\r\n    // collects lended money and adds to the balance\r\n    function payDebt(address recipitant)\r\n        external\r\n        exists(msg.sender)\r\n        exists(recipitant)\r\n    {\r\n        // calulate debt or not\r\n        AccInfo storage sender = profiles[msg.sender];\r\n\r\n        require(\r\n            sender.debtMoney[recipitant] > sender.lendedMoney[recipitant],\r\n            \"No debt found!\"\r\n        );\r\n        // i.e sender is in debt of recipitant\r\n        // so transfer debt\r\n\r\n        uint256 debt =\r\n            sender.debtMoney[recipitant] - sender.lendedMoney[recipitant];\r\n\r\n        // check balance is there to clear debt\r\n        require(debt <= sender.bal, \"Insufficient Funds!\");\r\n\r\n        // transfer balance\r\n        sender.bal -= debt;\r\n        profiles[recipitant].bal += debt;\r\n\r\n        // update recipitants Account\r\n        profiles[recipitant].lendedMoney[msg.sender] -= sender.debtMoney[\r\n            recipitant\r\n        ];\r\n        profiles[recipitant].totalLendedMoney -= sender.debtMoney[recipitant];\r\n\r\n        profiles[recipitant].debtMoney[msg.sender] -= sender.lendedMoney[\r\n            recipitant\r\n        ];\r\n        profiles[recipitant].totalDebtMoney -= sender.lendedMoney[recipitant];\r\n\r\n        // update sender profile\r\n        sender.totalDebtMoney -= sender.debtMoney[recipitant];\r\n        sender.totalLendedMoney -= sender.lendedMoney[recipitant];\r\n        sender.debtMoney[recipitant] = 0;\r\n        sender.lendedMoney[recipitant] = 0;\r\n\r\n        // emit event for debt paid success full\r\n        emit DebtPaid(block.timestamp, debt, msg.sender, recipitant);\r\n    }\r\n\r\n    // withdraw money from account\r\n    // amount is in wei\r\n    function withdrawMoney(uint256 amount) external exists(msg.sender) {\r\n        // check if sufficient balance or not\r\n        require(amount <= profiles[msg.sender].bal, \"Insufficient Balance\");\r\n\r\n        // transfer required amount\r\n        msg.sender.transfer(amount);\r\n        profiles[msg.sender].bal -= amount;\r\n    }\r\n\r\n    // to deposite money\r\n    function depositeMoney() external payable exists(msg.sender) {\r\n        require(msg.value > 0, \"No Money sent!\");\r\n\r\n        profiles[msg.sender].bal += msg.value;\r\n    }\r\n}\r\n",
  "sourcePath": "C:/Users/Acer/Desktop/BlockChain/contracts/SplitIt.sol",
  "compiler": {
    "name": "solc",
    "version": "0.7.6+commit.7338295f.Emscripten.clang"
  },
  "schemaVersion": "3.3.4",
  "updatedAt": "2021-02-25T10:17:39.494Z",
  "networkType": "ethereum",
  "devdoc": {
    "kind": "dev",
    "methods": {},
    "version": 1
  },
  "userdoc": {
    "kind": "user",
    "methods": {},
    "version": 1
  }
}